{
  "_format": "hh-sol-artifact-1",
  "contractName": "RealEstate",
  "sourceName": "contracts/RealEstate.sol",
  "abi": [
    {
      "inputs": [
        {
          "internalType": "address",
          "name": "_currency",
          "type": "address"
        }
      ],
      "stateMutability": "nonpayable",
      "type": "constructor"
    },
    {
      "anonymous": false,
      "inputs": [
        {
          "indexed": false,
          "internalType": "uint256",
          "name": "itemId",
          "type": "uint256"
        },
        {
          "indexed": true,
          "internalType": "address",
          "name": "nft",
          "type": "address"
        },
        {
          "indexed": false,
          "internalType": "uint256",
          "name": "tokenId",
          "type": "uint256"
        },
        {
          "indexed": false,
          "internalType": "uint256",
          "name": "price",
          "type": "uint256"
        },
        {
          "indexed": true,
          "internalType": "address",
          "name": "seller",
          "type": "address"
        }
      ],
      "name": "PropertyCancelled",
      "type": "event"
    },
    {
      "anonymous": false,
      "inputs": [
        {
          "indexed": false,
          "internalType": "uint256",
          "name": "itemId",
          "type": "uint256"
        },
        {
          "indexed": true,
          "internalType": "address",
          "name": "nft",
          "type": "address"
        },
        {
          "indexed": false,
          "internalType": "uint256",
          "name": "tokenId",
          "type": "uint256"
        },
        {
          "indexed": false,
          "internalType": "uint256",
          "name": "price",
          "type": "uint256"
        },
        {
          "indexed": true,
          "internalType": "address",
          "name": "seller",
          "type": "address"
        }
      ],
      "name": "PropertyOffered",
      "type": "event"
    },
    {
      "anonymous": false,
      "inputs": [
        {
          "indexed": false,
          "internalType": "uint256",
          "name": "itemId",
          "type": "uint256"
        },
        {
          "indexed": false,
          "internalType": "address",
          "name": "nft",
          "type": "address"
        },
        {
          "indexed": true,
          "internalType": "uint256",
          "name": "tokenId",
          "type": "uint256"
        },
        {
          "indexed": false,
          "internalType": "uint256",
          "name": "price",
          "type": "uint256"
        },
        {
          "indexed": true,
          "internalType": "address",
          "name": "seller",
          "type": "address"
        },
        {
          "indexed": true,
          "internalType": "address",
          "name": "buyer",
          "type": "address"
        }
      ],
      "name": "PropertyPurchased",
      "type": "event"
    },
    {
      "inputs": [
        {
          "internalType": "uint256",
          "name": "_itemId",
          "type": "uint256"
        }
      ],
      "name": "cancelPropertySales",
      "outputs": [],
      "stateMutability": "nonpayable",
      "type": "function"
    },
    {
      "inputs": [],
      "name": "erc20Address",
      "outputs": [
        {
          "internalType": "address",
          "name": "",
          "type": "address"
        }
      ],
      "stateMutability": "view",
      "type": "function"
    },
    {
      "inputs": [],
      "name": "itemCount",
      "outputs": [
        {
          "internalType": "uint256",
          "name": "",
          "type": "uint256"
        }
      ],
      "stateMutability": "view",
      "type": "function"
    },
    {
      "inputs": [
        {
          "internalType": "contract IERC721",
          "name": "_nft",
          "type": "address"
        },
        {
          "internalType": "uint256",
          "name": "_tokenId",
          "type": "uint256"
        },
        {
          "internalType": "uint256",
          "name": "_price",
          "type": "uint256"
        }
      ],
      "name": "offerProperty",
      "outputs": [],
      "stateMutability": "nonpayable",
      "type": "function"
    },
    {
      "inputs": [
        {
          "internalType": "uint256",
          "name": "",
          "type": "uint256"
        }
      ],
      "name": "properties",
      "outputs": [
        {
          "internalType": "uint256",
          "name": "id",
          "type": "uint256"
        },
        {
          "internalType": "contract IERC721",
          "name": "nft",
          "type": "address"
        },
        {
          "internalType": "uint256",
          "name": "tokenId",
          "type": "uint256"
        },
        {
          "internalType": "uint256",
          "name": "price",
          "type": "uint256"
        },
        {
          "internalType": "address payable",
          "name": "seller",
          "type": "address"
        },
        {
          "internalType": "bool",
          "name": "sold",
          "type": "bool"
        },
        {
          "internalType": "bool",
          "name": "available",
          "type": "bool"
        }
      ],
      "stateMutability": "view",
      "type": "function"
    },
    {
      "inputs": [
        {
          "internalType": "uint256",
          "name": "_itemId",
          "type": "uint256"
        }
      ],
      "name": "purchaseProperty",
      "outputs": [],
      "stateMutability": "payable",
      "type": "function"
    }
  ],
  "bytecode": "0x60806040523480156200001157600080fd5b50604051620015e0380380620015e08339818101604052810190620000379190620000e8565b806000806101000a81548173ffffffffffffffffffffffffffffffffffffffff021916908373ffffffffffffffffffffffffffffffffffffffff160217905550506200011a565b600080fd5b600073ffffffffffffffffffffffffffffffffffffffff82169050919050565b6000620000b08262000083565b9050919050565b620000c281620000a3565b8114620000ce57600080fd5b50565b600081519050620000e281620000b7565b92915050565b6000602082840312156200010157620001006200007e565b5b60006200011184828501620000d1565b91505092915050565b6114b6806200012a6000396000f3fe6080604052600436106100555760003560e01c8063276184ae1461005a57806347861f18146100855780636bfb0d01146100ae57806379d9c439146100d9578063de8bd3a7146100f5578063f7b108081461011e575b600080fd5b34801561006657600080fd5b5061006f610161565b60405161007c9190610c69565b60405180910390f35b34801561009157600080fd5b506100ac60048036038101906100a79190610cfd565b610185565b005b3480156100ba57600080fd5b506100c361042a565b6040516100d09190610d5f565b60405180910390f35b6100f360048036038101906100ee9190610d7a565b610430565b005b34801561010157600080fd5b5061011c60048036038101906101179190610d7a565b61087d565b005b34801561012a57600080fd5b5061014560048036038101906101409190610d7a565b610b8c565b6040516101589796959493929190610e42565b60405180910390f35b60008054906101000a900473ffffffffffffffffffffffffffffffffffffffff1681565b600081116101c8576040517f08c379a00000000000000000000000000000000000000000000000000000000081526004016101bf90610f0e565b60405180910390fd5b8273ffffffffffffffffffffffffffffffffffffffff166323b872dd3330856040518463ffffffff1660e01b815260040161020593929190610f2e565b600060405180830381600087803b15801561021f57600080fd5b505af1158015610233573d6000803e3d6000fd5b505050506040518060e0016040528060015481526020018473ffffffffffffffffffffffffffffffffffffffff1681526020018381526020018281526020013373ffffffffffffffffffffffffffffffffffffffff168152602001600015158152602001600115158152506002600060015481526020019081526020016000206000820151816000015560208201518160010160006101000a81548173ffffffffffffffffffffffffffffffffffffffff021916908373ffffffffffffffffffffffffffffffffffffffff160217905550604082015181600201556060820151816003015560808201518160040160006101000a81548173ffffffffffffffffffffffffffffffffffffffff021916908373ffffffffffffffffffffffffffffffffffffffff16021790555060a08201518160040160146101000a81548160ff02191690831515021790555060c08201518160040160156101000a81548160ff0219169083151502179055509050503373ffffffffffffffffffffffffffffffffffffffff168373ffffffffffffffffffffffffffffffffffffffff167fa5639ce803eb2d2e67abd0de4a52cfc3f4e4b34afafee2d4dff78e95aa7139e2600154858560405161040593929190610f65565b60405180910390a36001600081548092919061042090610fcb565b9190505550505050565b60015481565b60006002600083815260200190815260200160002090506000821015801561045a57506001548211155b610499576040517f08c379a00000000000000000000000000000000000000000000000000000000081526004016104909061105f565b60405180910390fd5b8060040160149054906101000a900460ff16156104eb576040517f08c379a00000000000000000000000000000000000000000000000000000000081526004016104e2906110cb565b60405180910390fd5b8060040160159054906101000a900460ff1661053c576040517f08c379a000000000000000000000000000000000000000000000000000000000815260040161053390611137565b60405180910390fd5b600260008381526020019081526020016000206003015460008054906101000a900473ffffffffffffffffffffffffffffffffffffffff1673ffffffffffffffffffffffffffffffffffffffff1663dd62ed3e33306040518363ffffffff1660e01b81526004016105ae929190611157565b602060405180830381865afa1580156105cb573d6000803e3d6000fd5b505050506040513d601f19601f820116820180604052508101906105ef9190611195565b1015610630576040517f08c379a000000000000000000000000000000000000000000000000000000000815260040161062790611234565b60405180910390fd5b60008054906101000a900473ffffffffffffffffffffffffffffffffffffffff1673ffffffffffffffffffffffffffffffffffffffff166323b872dd338360040160009054906101000a900473ffffffffffffffffffffffffffffffffffffffff1660026000878152602001908152602001600020600301546040518463ffffffff1660e01b81526004016106c793929190611275565b6020604051808303816000875af11580156106e6573d6000803e3d6000fd5b505050506040513d601f19601f8201168201806040525081019061070a91906112d8565b508060010160009054906101000a900473ffffffffffffffffffffffffffffffffffffffff1673ffffffffffffffffffffffffffffffffffffffff166323b872dd303384600201546040518463ffffffff1660e01b815260040161077093929190610f2e565b600060405180830381600087803b15801561078a57600080fd5b505af115801561079e573d6000803e3d6000fd5b5050505060018160040160146101000a81548160ff0219169083151502179055503373ffffffffffffffffffffffffffffffffffffffff168160040160009054906101000a900473ffffffffffffffffffffffffffffffffffffffff1673ffffffffffffffffffffffffffffffffffffffff1682600201547fae951fb50ebe9d5e2ccf880ac636d3a862268e004b8427d27950ec3cbbea5de0858560010160009054906101000a900473ffffffffffffffffffffffffffffffffffffffff16866003015460405161087193929190611305565b60405180910390a45050565b6000811015801561089057506001548111155b6108cf576040517f08c379a00000000000000000000000000000000000000000000000000000000081526004016108c69061105f565b60405180910390fd5b60006002600083815260200190815260200160002090508060040160009054906101000a900473ffffffffffffffffffffffffffffffffffffffff1673ffffffffffffffffffffffffffffffffffffffff163373ffffffffffffffffffffffffffffffffffffffff1614610978576040517f08c379a000000000000000000000000000000000000000000000000000000000815260040161096f90611388565b60405180910390fd5b8060040160159054906101000a900460ff166109c9576040517f08c379a00000000000000000000000000000000000000000000000000000000081526004016109c0906113f4565b60405180910390fd5b8060040160149054906101000a900460ff1615610a1b576040517f08c379a0000000000000000000000000000000000000000000000000000000008152600401610a1290611460565b60405180910390fd5b60008160040160156101000a81548160ff0219169083151502179055508060010160009054906101000a900473ffffffffffffffffffffffffffffffffffffffff1673ffffffffffffffffffffffffffffffffffffffff166323b872dd303384600201546040518463ffffffff1660e01b8152600401610a9d93929190610f2e565b600060405180830381600087803b158015610ab757600080fd5b505af1158015610acb573d6000803e3d6000fd5b505050508060040160009054906101000a900473ffffffffffffffffffffffffffffffffffffffff1673ffffffffffffffffffffffffffffffffffffffff168160010160009054906101000a900473ffffffffffffffffffffffffffffffffffffffff1673ffffffffffffffffffffffffffffffffffffffff167fb23fb249e31ca6b4fde7f7919ba5fee0679fcdd7a4d9785b970ad755139a179d8484600201548560030154604051610b8093929190610f65565b60405180910390a35050565b60026020528060005260406000206000915090508060000154908060010160009054906101000a900473ffffffffffffffffffffffffffffffffffffffff16908060020154908060030154908060040160009054906101000a900473ffffffffffffffffffffffffffffffffffffffff16908060040160149054906101000a900460ff16908060040160159054906101000a900460ff16905087565b600073ffffffffffffffffffffffffffffffffffffffff82169050919050565b6000610c5382610c28565b9050919050565b610c6381610c48565b82525050565b6000602082019050610c7e6000830184610c5a565b92915050565b600080fd5b6000610c9482610c48565b9050919050565b610ca481610c89565b8114610caf57600080fd5b50565b600081359050610cc181610c9b565b92915050565b6000819050919050565b610cda81610cc7565b8114610ce557600080fd5b50565b600081359050610cf781610cd1565b92915050565b600080600060608486031215610d1657610d15610c84565b5b6000610d2486828701610cb2565b9350506020610d3586828701610ce8565b9250506040610d4686828701610ce8565b9150509250925092565b610d5981610cc7565b82525050565b6000602082019050610d746000830184610d50565b92915050565b600060208284031215610d9057610d8f610c84565b5b6000610d9e84828501610ce8565b91505092915050565b6000819050919050565b6000610dcc610dc7610dc284610c28565b610da7565b610c28565b9050919050565b6000610dde82610db1565b9050919050565b6000610df082610dd3565b9050919050565b610e0081610de5565b82525050565b6000610e1182610c28565b9050919050565b610e2181610e06565b82525050565b60008115159050919050565b610e3c81610e27565b82525050565b600060e082019050610e57600083018a610d50565b610e646020830189610df7565b610e716040830188610d50565b610e7e6060830187610d50565b610e8b6080830186610e18565b610e9860a0830185610e33565b610ea560c0830184610e33565b98975050505050505050565b600082825260208201905092915050565b7f5072696365206d7573742062652067726561746572207468616e207a65726f00600082015250565b6000610ef8601f83610eb1565b9150610f0382610ec2565b602082019050919050565b60006020820190508181036000830152610f2781610eeb565b9050919050565b6000606082019050610f436000830186610c5a565b610f506020830185610c5a565b610f5d6040830184610d50565b949350505050565b6000606082019050610f7a6000830186610d50565b610f876020830185610d50565b610f946040830184610d50565b949350505050565b7f4e487b7100000000000000000000000000000000000000000000000000000000600052601160045260246000fd5b6000610fd682610cc7565b91507fffffffffffffffffffffffffffffffffffffffffffffffffffffffffffffffff820361100857611007610f9c565b5b600182019050919050565b7f6974656d20646f65736e27742065786973740000000000000000000000000000600082015250565b6000611049601283610eb1565b915061105482611013565b602082019050919050565b600060208201905081810360008301526110788161103c565b9050919050565b7f6974656d20616c726561647920736f6c64000000000000000000000000000000600082015250565b60006110b5601183610eb1565b91506110c08261107f565b602082019050919050565b600060208201905081810360008301526110e4816110a8565b9050919050565b7f6974656d206e6f7420617661696c61626c650000000000000000000000000000600082015250565b6000611121601283610eb1565b915061112c826110eb565b602082019050919050565b6000602082019050818103600083015261115081611114565b9050919050565b600060408201905061116c6000830185610c5a565b6111796020830184610c5a565b9392505050565b60008151905061118f81610cd1565b92915050565b6000602082840312156111ab576111aa610c84565b5b60006111b984828501611180565b91505092915050565b7f6e6f7420656e6f7567682066756e6420746f20636f766572206974656d20707260008201527f6963650000000000000000000000000000000000000000000000000000000000602082015250565b600061121e602383610eb1565b9150611229826111c2565b604082019050919050565b6000602082019050818103600083015261124d81611211565b9050919050565b600061125f82610dd3565b9050919050565b61126f81611254565b82525050565b600060608201905061128a6000830186610c5a565b6112976020830185611266565b6112a46040830184610d50565b949350505050565b6112b581610e27565b81146112c057600080fd5b50565b6000815190506112d2816112ac565b92915050565b6000602082840312156112ee576112ed610c84565b5b60006112fc848285016112c3565b91505092915050565b600060608201905061131a6000830186610d50565b6113276020830185610c5a565b6113346040830184610d50565b949350505050565b7f6f6e6c792073656c6c65722063616e2063616e63656c2073616c657300000000600082015250565b6000611372601c83610eb1565b915061137d8261133c565b602082019050919050565b600060208201905081810360008301526113a181611365565b9050919050565b7f6974656d20646f65736e277420617661696c61626c6500000000000000000000600082015250565b60006113de601683610eb1565b91506113e9826113a8565b602082019050919050565b6000602082019050818103600083015261140d816113d1565b9050919050565b7f6974656d20697320736f6c640000000000000000000000000000000000000000600082015250565b600061144a600c83610eb1565b915061145582611414565b602082019050919050565b600060208201905081810360008301526114798161143d565b905091905056fea26469706673582212205b62b1f46ba6c1e46b5dbbb57dbc3a77379b4af251c035ad7e829a946eaa3c6a64736f6c63430008140033",
  "linkReferences": {},
  "deployedLinkReferences": {}
}