{
  "_format": "hh-sol-artifact-1",
  "contractName": "RealEstateNFT",
  "sourceName": "contracts/RealEstateNFT.sol",
  "abi": [
    {
      "inputs": [
        {
          "internalType": "address",
          "name": "initialOwner",
          "type": "address"
        }
      ],
      "stateMutability": "nonpayable",
      "type": "constructor"
    },
    {
      "inputs": [],
      "name": "ERC721EnumerableForbiddenBatchMint",
      "type": "error"
    },
    {
      "inputs": [
        {
          "internalType": "address",
          "name": "sender",
          "type": "address"
        },
        {
          "internalType": "uint256",
          "name": "tokenId",
          "type": "uint256"
        },
        {
          "internalType": "address",
          "name": "owner",
          "type": "address"
        }
      ],
      "name": "ERC721IncorrectOwner",
      "type": "error"
    },
    {
      "inputs": [
        {
          "internalType": "address",
          "name": "operator",
          "type": "address"
        },
        {
          "internalType": "uint256",
          "name": "tokenId",
          "type": "uint256"
        }
      ],
      "name": "ERC721InsufficientApproval",
      "type": "error"
    },
    {
      "inputs": [
        {
          "internalType": "address",
          "name": "approver",
          "type": "address"
        }
      ],
      "name": "ERC721InvalidApprover",
      "type": "error"
    },
    {
      "inputs": [
        {
          "internalType": "address",
          "name": "operator",
          "type": "address"
        }
      ],
      "name": "ERC721InvalidOperator",
      "type": "error"
    },
    {
      "inputs": [
        {
          "internalType": "address",
          "name": "owner",
          "type": "address"
        }
      ],
      "name": "ERC721InvalidOwner",
      "type": "error"
    },
    {
      "inputs": [
        {
          "internalType": "address",
          "name": "receiver",
          "type": "address"
        }
      ],
      "name": "ERC721InvalidReceiver",
      "type": "error"
    },
    {
      "inputs": [
        {
          "internalType": "address",
          "name": "sender",
          "type": "address"
        }
      ],
      "name": "ERC721InvalidSender",
      "type": "error"
    },
    {
      "inputs": [
        {
          "internalType": "uint256",
          "name": "tokenId",
          "type": "uint256"
        }
      ],
      "name": "ERC721NonexistentToken",
      "type": "error"
    },
    {
      "inputs": [
        {
          "internalType": "address",
          "name": "owner",
          "type": "address"
        },
        {
          "internalType": "uint256",
          "name": "index",
          "type": "uint256"
        }
      ],
      "name": "ERC721OutOfBoundsIndex",
      "type": "error"
    },
    {
      "inputs": [
        {
          "internalType": "address",
          "name": "owner",
          "type": "address"
        }
      ],
      "name": "OwnableInvalidOwner",
      "type": "error"
    },
    {
      "inputs": [
        {
          "internalType": "address",
          "name": "account",
          "type": "address"
        }
      ],
      "name": "OwnableUnauthorizedAccount",
      "type": "error"
    },
    {
      "anonymous": false,
      "inputs": [
        {
          "indexed": true,
          "internalType": "address",
          "name": "owner",
          "type": "address"
        },
        {
          "indexed": true,
          "internalType": "address",
          "name": "approved",
          "type": "address"
        },
        {
          "indexed": true,
          "internalType": "uint256",
          "name": "tokenId",
          "type": "uint256"
        }
      ],
      "name": "Approval",
      "type": "event"
    },
    {
      "anonymous": false,
      "inputs": [
        {
          "indexed": true,
          "internalType": "address",
          "name": "owner",
          "type": "address"
        },
        {
          "indexed": true,
          "internalType": "address",
          "name": "operator",
          "type": "address"
        },
        {
          "indexed": false,
          "internalType": "bool",
          "name": "approved",
          "type": "bool"
        }
      ],
      "name": "ApprovalForAll",
      "type": "event"
    },
    {
      "anonymous": false,
      "inputs": [
        {
          "indexed": false,
          "internalType": "uint256",
          "name": "_fromTokenId",
          "type": "uint256"
        },
        {
          "indexed": false,
          "internalType": "uint256",
          "name": "_toTokenId",
          "type": "uint256"
        }
      ],
      "name": "BatchMetadataUpdate",
      "type": "event"
    },
    {
      "anonymous": false,
      "inputs": [
        {
          "indexed": false,
          "internalType": "uint256",
          "name": "_tokenId",
          "type": "uint256"
        }
      ],
      "name": "MetadataUpdate",
      "type": "event"
    },
    {
      "anonymous": false,
      "inputs": [
        {
          "indexed": true,
          "internalType": "address",
          "name": "previousOwner",
          "type": "address"
        },
        {
          "indexed": true,
          "internalType": "address",
          "name": "newOwner",
          "type": "address"
        }
      ],
      "name": "OwnershipTransferred",
      "type": "event"
    },
    {
      "anonymous": false,
      "inputs": [
        {
          "indexed": true,
          "internalType": "address",
          "name": "from",
          "type": "address"
        },
        {
          "indexed": true,
          "internalType": "address",
          "name": "to",
          "type": "address"
        },
        {
          "indexed": true,
          "internalType": "uint256",
          "name": "tokenId",
          "type": "uint256"
        }
      ],
      "name": "Transfer",
      "type": "event"
    },
    {
      "inputs": [
        {
          "internalType": "address",
          "name": "to",
          "type": "address"
        },
        {
          "internalType": "uint256",
          "name": "tokenId",
          "type": "uint256"
        }
      ],
      "name": "approve",
      "outputs": [],
      "stateMutability": "nonpayable",
      "type": "function"
    },
    {
      "inputs": [
        {
          "internalType": "address",
          "name": "owner",
          "type": "address"
        }
      ],
      "name": "balanceOf",
      "outputs": [
        {
          "internalType": "uint256",
          "name": "",
          "type": "uint256"
        }
      ],
      "stateMutability": "view",
      "type": "function"
    },
    {
      "inputs": [
        {
          "internalType": "uint256",
          "name": "tokenId",
          "type": "uint256"
        }
      ],
      "name": "getApproved",
      "outputs": [
        {
          "internalType": "address",
          "name": "",
          "type": "address"
        }
      ],
      "stateMutability": "view",
      "type": "function"
    },
    {
      "inputs": [
        {
          "internalType": "address",
          "name": "owner",
          "type": "address"
        },
        {
          "internalType": "address",
          "name": "operator",
          "type": "address"
        }
      ],
      "name": "isApprovedForAll",
      "outputs": [
        {
          "internalType": "bool",
          "name": "",
          "type": "bool"
        }
      ],
      "stateMutability": "view",
      "type": "function"
    },
    {
      "inputs": [
        {
          "internalType": "address",
          "name": "owner",
          "type": "address"
        }
      ],
      "name": "listNFTsForOwner",
      "outputs": [
        {
          "internalType": "uint256[]",
          "name": "",
          "type": "uint256[]"
        }
      ],
      "stateMutability": "view",
      "type": "function"
    },
    {
      "inputs": [],
      "name": "name",
      "outputs": [
        {
          "internalType": "string",
          "name": "",
          "type": "string"
        }
      ],
      "stateMutability": "view",
      "type": "function"
    },
    {
      "inputs": [],
      "name": "owner",
      "outputs": [
        {
          "internalType": "address",
          "name": "",
          "type": "address"
        }
      ],
      "stateMutability": "view",
      "type": "function"
    },
    {
      "inputs": [
        {
          "internalType": "uint256",
          "name": "tokenId",
          "type": "uint256"
        }
      ],
      "name": "ownerOf",
      "outputs": [
        {
          "internalType": "address",
          "name": "",
          "type": "address"
        }
      ],
      "stateMutability": "view",
      "type": "function"
    },
    {
      "inputs": [],
      "name": "renounceOwnership",
      "outputs": [],
      "stateMutability": "nonpayable",
      "type": "function"
    },
    {
      "inputs": [
        {
          "internalType": "address",
          "name": "to",
          "type": "address"
        },
        {
          "internalType": "string",
          "name": "uri",
          "type": "string"
        }
      ],
      "name": "safeMint",
      "outputs": [
        {
          "internalType": "uint256",
          "name": "",
          "type": "uint256"
        }
      ],
      "stateMutability": "nonpayable",
      "type": "function"
    },
    {
      "inputs": [
        {
          "internalType": "address",
          "name": "from",
          "type": "address"
        },
        {
          "internalType": "address",
          "name": "to",
          "type": "address"
        },
        {
          "internalType": "uint256",
          "name": "tokenId",
          "type": "uint256"
        }
      ],
      "name": "safeTransferFrom",
      "outputs": [],
      "stateMutability": "nonpayable",
      "type": "function"
    },
    {
      "inputs": [
        {
          "internalType": "address",
          "name": "from",
          "type": "address"
        },
        {
          "internalType": "address",
          "name": "to",
          "type": "address"
        },
        {
          "internalType": "uint256",
          "name": "tokenId",
          "type": "uint256"
        },
        {
          "internalType": "bytes",
          "name": "data",
          "type": "bytes"
        }
      ],
      "name": "safeTransferFrom",
      "outputs": [],
      "stateMutability": "nonpayable",
      "type": "function"
    },
    {
      "inputs": [
        {
          "internalType": "address",
          "name": "operator",
          "type": "address"
        },
        {
          "internalType": "bool",
          "name": "approved",
          "type": "bool"
        }
      ],
      "name": "setApprovalForAll",
      "outputs": [],
      "stateMutability": "nonpayable",
      "type": "function"
    },
    {
      "inputs": [
        {
          "internalType": "bytes4",
          "name": "interfaceId",
          "type": "bytes4"
        }
      ],
      "name": "supportsInterface",
      "outputs": [
        {
          "internalType": "bool",
          "name": "",
          "type": "bool"
        }
      ],
      "stateMutability": "view",
      "type": "function"
    },
    {
      "inputs": [],
      "name": "symbol",
      "outputs": [
        {
          "internalType": "string",
          "name": "",
          "type": "string"
        }
      ],
      "stateMutability": "view",
      "type": "function"
    },
    {
      "inputs": [
        {
          "internalType": "uint256",
          "name": "index",
          "type": "uint256"
        }
      ],
      "name": "tokenByIndex",
      "outputs": [
        {
          "internalType": "uint256",
          "name": "",
          "type": "uint256"
        }
      ],
      "stateMutability": "view",
      "type": "function"
    },
    {
      "inputs": [
        {
          "internalType": "address",
          "name": "owner",
          "type": "address"
        },
        {
          "internalType": "uint256",
          "name": "index",
          "type": "uint256"
        }
      ],
      "name": "tokenOfOwnerByIndex",
      "outputs": [
        {
          "internalType": "uint256",
          "name": "",
          "type": "uint256"
        }
      ],
      "stateMutability": "view",
      "type": "function"
    },
    {
      "inputs": [
        {
          "internalType": "uint256",
          "name": "tokenId",
          "type": "uint256"
        }
      ],
      "name": "tokenURI",
      "outputs": [
        {
          "internalType": "string",
          "name": "",
          "type": "string"
        }
      ],
      "stateMutability": "view",
      "type": "function"
    },
    {
      "inputs": [],
      "name": "totalSupply",
      "outputs": [
        {
          "internalType": "uint256",
          "name": "",
          "type": "uint256"
        }
      ],
      "stateMutability": "view",
      "type": "function"
    },
    {
      "inputs": [
        {
          "internalType": "address",
          "name": "from",
          "type": "address"
        },
        {
          "internalType": "address",
          "name": "to",
          "type": "address"
        },
        {
          "internalType": "uint256",
          "name": "tokenId",
          "type": "uint256"
        }
      ],
      "name": "transferFrom",
      "outputs": [],
      "stateMutability": "nonpayable",
      "type": "function"
    },
    {
      "inputs": [
        {
          "internalType": "address",
          "name": "newOwner",
          "type": "address"
        }
      ],
      "name": "transferOwnership",
      "outputs": [],
      "stateMutability": "nonpayable",
      "type": "function"
    }
  ],
  "bytecode": "0x60806040523480156200001157600080fd5b50604051620035bf380380620035bf833981810160405281019062000037919062000288565b806040518060400160405280600a81526020017f5265616c457374617465000000000000000000000000000000000000000000008152506040518060400160405280600481526020017f5245414c000000000000000000000000000000000000000000000000000000008152508160009081620000b5919062000534565b508060019081620000c7919062000534565b505050600073ffffffffffffffffffffffffffffffffffffffff168173ffffffffffffffffffffffffffffffffffffffff16036200013f5760006040517f1e4fbdf70000000000000000000000000000000000000000000000000000000081526004016200013691906200062c565b60405180910390fd5b62000150816200015860201b60201c565b505062000649565b6000600b60009054906101000a900473ffffffffffffffffffffffffffffffffffffffff16905081600b60006101000a81548173ffffffffffffffffffffffffffffffffffffffff021916908373ffffffffffffffffffffffffffffffffffffffff1602179055508173ffffffffffffffffffffffffffffffffffffffff168173ffffffffffffffffffffffffffffffffffffffff167f8be0079c531659141344cd1fd0a4f28419497f9722a3daafe3b4186f6b6457e060405160405180910390a35050565b600080fd5b600073ffffffffffffffffffffffffffffffffffffffff82169050919050565b6000620002508262000223565b9050919050565b620002628162000243565b81146200026e57600080fd5b50565b600081519050620002828162000257565b92915050565b600060208284031215620002a157620002a06200021e565b5b6000620002b18482850162000271565b91505092915050565b600081519050919050565b7f4e487b7100000000000000000000000000000000000000000000000000000000600052604160045260246000fd5b7f4e487b7100000000000000000000000000000000000000000000000000000000600052602260045260246000fd5b600060028204905060018216806200033c57607f821691505b602082108103620003525762000351620002f4565b5b50919050565b60008190508160005260206000209050919050565b60006020601f8301049050919050565b600082821b905092915050565b600060088302620003bc7fffffffffffffffffffffffffffffffffffffffffffffffffffffffffffffffff826200037d565b620003c886836200037d565b95508019841693508086168417925050509392505050565b6000819050919050565b6000819050919050565b6000620004156200040f6200040984620003e0565b620003ea565b620003e0565b9050919050565b6000819050919050565b6200043183620003f4565b6200044962000440826200041c565b8484546200038a565b825550505050565b600090565b6200046062000451565b6200046d81848462000426565b505050565b5b8181101562000495576200048960008262000456565b60018101905062000473565b5050565b601f821115620004e457620004ae8162000358565b620004b9846200036d565b81016020851015620004c9578190505b620004e1620004d8856200036d565b83018262000472565b50505b505050565b600082821c905092915050565b60006200050960001984600802620004e9565b1980831691505092915050565b6000620005248383620004f6565b9150826002028217905092915050565b6200053f82620002ba565b67ffffffffffffffff8111156200055b576200055a620002c5565b5b62000567825462000323565b6200057482828562000499565b600060209050601f831160018114620005ac576000841562000597578287015190505b620005a3858262000516565b86555062000613565b601f198416620005bc8662000358565b60005b82811015620005e657848901518255600182019150602085019450602081019050620005bf565b8683101562000606578489015162000602601f891682620004f6565b8355505b6001600288020188555050505b505050505050565b620006268162000243565b82525050565b60006020820190506200064360008301846200061b565b92915050565b612f6680620006596000396000f3fe608060405234801561001057600080fd5b50600436106101375760003560e01c806370a08231116100b8578063a22cb4651161007c578063a22cb46514610362578063b88d4fde1461037e578063c87b56dd1461039a578063d204c45e146103ca578063e985e9c5146103fa578063f2fde38b1461042a57610137565b806370a08231146102bc578063715018a6146102ec5780638da5cb5b146102f657806395d89b4114610314578063a14b37021461033257610137565b806323b872dd116100ff57806323b872dd146101f45780632f745c591461021057806342842e0e146102405780634f6ccce71461025c5780636352211e1461028c57610137565b806301ffc9a71461013c57806306fdde031461016c578063081812fc1461018a578063095ea7b3146101ba57806318160ddd146101d6575b600080fd5b6101566004803603810190610151919061224c565b610446565b6040516101639190612294565b60405180910390f35b610174610458565b604051610181919061233f565b60405180910390f35b6101a4600480360381019061019f9190612397565b6104ea565b6040516101b19190612405565b60405180910390f35b6101d460048036038101906101cf919061244c565b610506565b005b6101de61051c565b6040516101eb919061249b565b60405180910390f35b61020e600480360381019061020991906124b6565b610526565b005b61022a6004803603810190610225919061244c565b610628565b604051610237919061249b565b60405180910390f35b61025a600480360381019061025591906124b6565b6106d1565b005b61027660048036038101906102719190612397565b6106f1565b604051610283919061249b565b60405180910390f35b6102a660048036038101906102a19190612397565b610767565b6040516102b39190612405565b60405180910390f35b6102d660048036038101906102d19190612509565b610779565b6040516102e3919061249b565b60405180910390f35b6102f4610833565b005b6102fe610847565b60405161030b9190612405565b60405180910390f35b61031c610871565b604051610329919061233f565b60405180910390f35b61034c60048036038101906103479190612509565b610903565b60405161035991906125f4565b60405180910390f35b61037c60048036038101906103779190612642565b6109b1565b005b610398600480360381019061039391906127b7565b6109c7565b005b6103b460048036038101906103af9190612397565b6109e4565b6040516103c1919061233f565b60405180910390f35b6103e460048036038101906103df91906128db565b6109f6565b6040516103f1919061249b565b60405180910390f35b610414600480360381019061040f9190612937565b610a30565b6040516104219190612294565b60405180910390f35b610444600480360381019061043f9190612509565b610ac4565b005b600061045182610b4a565b9050919050565b606060008054610467906129a6565b80601f0160208091040260200160405190810160405280929190818152602001828054610493906129a6565b80156104e05780601f106104b5576101008083540402835291602001916104e0565b820191906000526020600020905b8154815290600101906020018083116104c357829003601f168201915b5050505050905090565b60006104f582610bab565b506104ff82610c33565b9050919050565b6105188282610513610c70565b610c78565b5050565b6000600c54905090565b600073ffffffffffffffffffffffffffffffffffffffff168273ffffffffffffffffffffffffffffffffffffffff16036105985760006040517f64a0ae9200000000000000000000000000000000000000000000000000000000815260040161058f9190612405565b60405180910390fd5b60006105ac83836105a7610c70565b610c8a565b90508373ffffffffffffffffffffffffffffffffffffffff168173ffffffffffffffffffffffffffffffffffffffff1614610622578382826040517f64283d7b000000000000000000000000000000000000000000000000000000008152600401610619939291906129d7565b60405180910390fd5b50505050565b600061063383610779565b82106106785782826040517fa57d13dc00000000000000000000000000000000000000000000000000000000815260040161066f929190612a0e565b60405180910390fd5b600660008473ffffffffffffffffffffffffffffffffffffffff1673ffffffffffffffffffffffffffffffffffffffff168152602001908152602001600020600083815260200190815260200160002054905092915050565b6106ec838383604051806020016040528060008152506109c7565b505050565b60006106fb61051c565b8210610741576000826040517fa57d13dc000000000000000000000000000000000000000000000000000000008152600401610738929190612a0e565b60405180910390fd5b6008828154811061075557610754612a37565b5b90600052602060002001549050919050565b600061077282610bab565b9050919050565b60008073ffffffffffffffffffffffffffffffffffffffff168273ffffffffffffffffffffffffffffffffffffffff16036107ec5760006040517f89c62b640000000000000000000000000000000000000000000000000000000081526004016107e39190612405565b60405180910390fd5b600360008373ffffffffffffffffffffffffffffffffffffffff1673ffffffffffffffffffffffffffffffffffffffff168152602001908152602001600020549050919050565b61083b610ca0565b6108456000610d27565b565b6000600b60009054906101000a900473ffffffffffffffffffffffffffffffffffffffff16905090565b606060018054610880906129a6565b80601f01602080910402602001604051908101604052809291908181526020018280546108ac906129a6565b80156108f95780601f106108ce576101008083540402835291602001916108f9565b820191906000526020600020905b8154815290600101906020018083116108dc57829003601f168201915b5050505050905090565b6060600061091083610779565b905060008167ffffffffffffffff81111561092e5761092d61268c565b5b60405190808252806020026020018201604052801561095c5781602001602082028036833780820191505090505b50905060005b828110156109a6576109748582610628565b82828151811061098757610986612a37565b5b602002602001018181525050808061099e90612a95565b915050610962565b508092505050919050565b6109c36109bc610c70565b8383610ded565b5050565b6109d2848484610526565b6109de84848484610f5c565b50505050565b60606109ef82611113565b9050919050565b600080600c6000815480929190610a0c90612a95565b919050559050610a1c8482611226565b610a268184611244565b8091505092915050565b6000600560008473ffffffffffffffffffffffffffffffffffffffff1673ffffffffffffffffffffffffffffffffffffffff16815260200190815260200160002060008373ffffffffffffffffffffffffffffffffffffffff1673ffffffffffffffffffffffffffffffffffffffff16815260200190815260200160002060009054906101000a900460ff16905092915050565b610acc610ca0565b600073ffffffffffffffffffffffffffffffffffffffff168173ffffffffffffffffffffffffffffffffffffffff1603610b3e5760006040517f1e4fbdf7000000000000000000000000000000000000000000000000000000008152600401610b359190612405565b60405180910390fd5b610b4781610d27565b50565b6000634906490660e01b7bffffffffffffffffffffffffffffffffffffffffffffffffffffffff1916827bffffffffffffffffffffffffffffffffffffffffffffffffffffffff19161480610ba45750610ba3826112a0565b5b9050919050565b600080610bb78361131a565b9050600073ffffffffffffffffffffffffffffffffffffffff168173ffffffffffffffffffffffffffffffffffffffff1603610c2a57826040517f7e273289000000000000000000000000000000000000000000000000000000008152600401610c21919061249b565b60405180910390fd5b80915050919050565b60006004600083815260200190815260200160002060009054906101000a900473ffffffffffffffffffffffffffffffffffffffff169050919050565b600033905090565b610c858383836001611357565b505050565b6000610c9784848461151c565b90509392505050565b610ca8610c70565b73ffffffffffffffffffffffffffffffffffffffff16610cc6610847565b73ffffffffffffffffffffffffffffffffffffffff1614610d2557610ce9610c70565b6040517f118cdaa7000000000000000000000000000000000000000000000000000000008152600401610d1c9190612405565b60405180910390fd5b565b6000600b60009054906101000a900473ffffffffffffffffffffffffffffffffffffffff16905081600b60006101000a81548173ffffffffffffffffffffffffffffffffffffffff021916908373ffffffffffffffffffffffffffffffffffffffff1602179055508173ffffffffffffffffffffffffffffffffffffffff168173ffffffffffffffffffffffffffffffffffffffff167f8be0079c531659141344cd1fd0a4f28419497f9722a3daafe3b4186f6b6457e060405160405180910390a35050565b600073ffffffffffffffffffffffffffffffffffffffff168273ffffffffffffffffffffffffffffffffffffffff1603610e5e57816040517f5b08ba18000000000000000000000000000000000000000000000000000000008152600401610e559190612405565b60405180910390fd5b80600560008573ffffffffffffffffffffffffffffffffffffffff1673ffffffffffffffffffffffffffffffffffffffff16815260200190815260200160002060008473ffffffffffffffffffffffffffffffffffffffff1673ffffffffffffffffffffffffffffffffffffffff16815260200190815260200160002060006101000a81548160ff0219169083151502179055508173ffffffffffffffffffffffffffffffffffffffff168373ffffffffffffffffffffffffffffffffffffffff167f17307eab39ab6107e8899845ad3d59bd9653f200f220920489ca2b5937696c3183604051610f4f9190612294565b60405180910390a3505050565b60008373ffffffffffffffffffffffffffffffffffffffff163b111561110d578273ffffffffffffffffffffffffffffffffffffffff1663150b7a02610fa0610c70565b8685856040518563ffffffff1660e01b8152600401610fc29493929190612b32565b6020604051808303816000875af1925050508015610ffe57506040513d601f19601f82011682018060405250810190610ffb9190612b93565b60015b611082573d806000811461102e576040519150601f19603f3d011682016040523d82523d6000602084013e611033565b606091505b50600081510361107a57836040517f64a0ae920000000000000000000000000000000000000000000000000000000081526004016110719190612405565b60405180910390fd5b805181602001fd5b63150b7a0260e01b7bffffffffffffffffffffffffffffffffffffffffffffffffffffffff1916817bffffffffffffffffffffffffffffffffffffffffffffffffffffffff19161461110b57836040517f64a0ae920000000000000000000000000000000000000000000000000000000081526004016111029190612405565b60405180910390fd5b505b50505050565b606061111e82610bab565b506000600a6000848152602001908152602001600020805461113f906129a6565b80601f016020809104026020016040519081016040528092919081815260200182805461116b906129a6565b80156111b85780601f1061118d576101008083540402835291602001916111b8565b820191906000526020600020905b81548152906001019060200180831161119b57829003601f168201915b5050505050905060006111c9611639565b905060008151036111de578192505050611221565b6000825111156112135780826040516020016111fb929190612bfc565b60405160208183030381529060405292505050611221565b61121c84611650565b925050505b919050565b6112408282604051806020016040528060008152506116b9565b5050565b80600a600084815260200190815260200160002090816112649190612dcc565b507ff8e1a15aba9398e019f0b49df1a4fde98ee17ae345cb5f6b5e2c27f5033e8ce782604051611294919061249b565b60405180910390a15050565b60007f780e9d63000000000000000000000000000000000000000000000000000000007bffffffffffffffffffffffffffffffffffffffffffffffffffffffff1916827bffffffffffffffffffffffffffffffffffffffffffffffffffffffff191614806113135750611312826116d5565b5b9050919050565b60006002600083815260200190815260200160002060009054906101000a900473ffffffffffffffffffffffffffffffffffffffff169050919050565b80806113905750600073ffffffffffffffffffffffffffffffffffffffff168273ffffffffffffffffffffffffffffffffffffffff1614155b156114c45760006113a084610bab565b9050600073ffffffffffffffffffffffffffffffffffffffff168373ffffffffffffffffffffffffffffffffffffffff161415801561140b57508273ffffffffffffffffffffffffffffffffffffffff168173ffffffffffffffffffffffffffffffffffffffff1614155b801561141e575061141c8184610a30565b155b1561146057826040517fa9fbf51f0000000000000000000000000000000000000000000000000000000081526004016114579190612405565b60405180910390fd5b81156114c257838573ffffffffffffffffffffffffffffffffffffffff168273ffffffffffffffffffffffffffffffffffffffff167f8c5be1e5ebec7d5bd14f71427d1e84f3dd0314c0f7b2291e5b200ac8c7c3b92560405160405180910390a45b505b836004600085815260200190815260200160002060006101000a81548173ffffffffffffffffffffffffffffffffffffffff021916908373ffffffffffffffffffffffffffffffffffffffff16021790555050505050565b60008061152a8585856117b7565b9050600073ffffffffffffffffffffffffffffffffffffffff168173ffffffffffffffffffffffffffffffffffffffff160361156e57611569846119d1565b6115ad565b8473ffffffffffffffffffffffffffffffffffffffff168173ffffffffffffffffffffffffffffffffffffffff16146115ac576115ab8185611a1a565b5b5b600073ffffffffffffffffffffffffffffffffffffffff168573ffffffffffffffffffffffffffffffffffffffff16036115ef576115ea84611b7b565b61162e565b8473ffffffffffffffffffffffffffffffffffffffff168173ffffffffffffffffffffffffffffffffffffffff161461162d5761162c8585611c4c565b5b5b809150509392505050565b606060405180602001604052806000815250905090565b606061165b82610bab565b506000611666611639565b9050600081511161168657604051806020016040528060008152506116b1565b8061169084611cd7565b6040516020016116a1929190612bfc565b6040516020818303038152906040525b915050919050565b6116c38383611da5565b6116d06000848484610f5c565b505050565b60007f80ac58cd000000000000000000000000000000000000000000000000000000007bffffffffffffffffffffffffffffffffffffffffffffffffffffffff1916827bffffffffffffffffffffffffffffffffffffffffffffffffffffffff191614806117a057507f5b5e139f000000000000000000000000000000000000000000000000000000007bffffffffffffffffffffffffffffffffffffffffffffffffffffffff1916827bffffffffffffffffffffffffffffffffffffffffffffffffffffffff1916145b806117b057506117af82611e9e565b5b9050919050565b6000806117c38461131a565b9050600073ffffffffffffffffffffffffffffffffffffffff168373ffffffffffffffffffffffffffffffffffffffff161461180557611804818486611f08565b5b600073ffffffffffffffffffffffffffffffffffffffff168173ffffffffffffffffffffffffffffffffffffffff161461189657611847600085600080611357565b6001600360008373ffffffffffffffffffffffffffffffffffffffff1673ffffffffffffffffffffffffffffffffffffffff168152602001908152602001600020600082825403925050819055505b600073ffffffffffffffffffffffffffffffffffffffff168573ffffffffffffffffffffffffffffffffffffffff1614611919576001600360008773ffffffffffffffffffffffffffffffffffffffff1673ffffffffffffffffffffffffffffffffffffffff168152602001908152602001600020600082825401925050819055505b846002600086815260200190815260200160002060006101000a81548173ffffffffffffffffffffffffffffffffffffffff021916908373ffffffffffffffffffffffffffffffffffffffff160217905550838573ffffffffffffffffffffffffffffffffffffffff168273ffffffffffffffffffffffffffffffffffffffff167fddf252ad1be2c89b69c2b068fc378daa952ba7f163c4a11628f55a4df523b3ef60405160405180910390a4809150509392505050565b6008805490506009600083815260200190815260200160002081905550600881908060018154018082558091505060019003906000526020600020016000909190919091505550565b6000611a2583610779565b9050600060076000848152602001908152602001600020549050818114611b0a576000600660008673ffffffffffffffffffffffffffffffffffffffff1673ffffffffffffffffffffffffffffffffffffffff168152602001908152602001600020600084815260200190815260200160002054905080600660008773ffffffffffffffffffffffffffffffffffffffff1673ffffffffffffffffffffffffffffffffffffffff168152602001908152602001600020600084815260200190815260200160002081905550816007600083815260200190815260200160002081905550505b6007600084815260200190815260200160002060009055600660008573ffffffffffffffffffffffffffffffffffffffff1673ffffffffffffffffffffffffffffffffffffffff16815260200190815260200160002060008381526020019081526020016000206000905550505050565b60006001600880549050611b8f9190612e9e565b9050600060096000848152602001908152602001600020549050600060088381548110611bbf57611bbe612a37565b5b906000526020600020015490508060088381548110611be157611be0612a37565b5b906000526020600020018190555081600960008381526020019081526020016000208190555060096000858152602001908152602001600020600090556008805480611c3057611c2f612ed2565b5b6001900381819060005260206000200160009055905550505050565b60006001611c5984610779565b611c639190612e9e565b905081600660008573ffffffffffffffffffffffffffffffffffffffff1673ffffffffffffffffffffffffffffffffffffffff168152602001908152602001600020600083815260200190815260200160002081905550806007600084815260200190815260200160002081905550505050565b606060006001611ce684611fcc565b01905060008167ffffffffffffffff811115611d0557611d0461268c565b5b6040519080825280601f01601f191660200182016040528015611d375781602001600182028036833780820191505090505b509050600082602001820190505b600115611d9a578080600190039150507f3031323334353637383961626364656600000000000000000000000000000000600a86061a8153600a8581611d8e57611d8d612f01565b5b04945060008503611d45575b819350505050919050565b600073ffffffffffffffffffffffffffffffffffffffff168273ffffffffffffffffffffffffffffffffffffffff1603611e175760006040517f64a0ae92000000000000000000000000000000000000000000000000000000008152600401611e0e9190612405565b60405180910390fd5b6000611e2583836000610c8a565b9050600073ffffffffffffffffffffffffffffffffffffffff168173ffffffffffffffffffffffffffffffffffffffff1614611e995760006040517f73c6ac6e000000000000000000000000000000000000000000000000000000008152600401611e909190612405565b60405180910390fd5b505050565b60007f01ffc9a7000000000000000000000000000000000000000000000000000000007bffffffffffffffffffffffffffffffffffffffffffffffffffffffff1916827bffffffffffffffffffffffffffffffffffffffffffffffffffffffff1916149050919050565b611f1383838361211f565b611fc757600073ffffffffffffffffffffffffffffffffffffffff168373ffffffffffffffffffffffffffffffffffffffff1603611f8857806040517f7e273289000000000000000000000000000000000000000000000000000000008152600401611f7f919061249b565b60405180910390fd5b81816040517f177e802f000000000000000000000000000000000000000000000000000000008152600401611fbe929190612a0e565b60405180910390fd5b505050565b600080600090507a184f03e93ff9f4daa797ed6e38ed64bf6a1f010000000000000000831061202a577a184f03e93ff9f4daa797ed6e38ed64bf6a1f01000000000000000083816120205761201f612f01565b5b0492506040810190505b6d04ee2d6d415b85acef81000000008310612067576d04ee2d6d415b85acef8100000000838161205d5761205c612f01565b5b0492506020810190505b662386f26fc10000831061209657662386f26fc10000838161208c5761208b612f01565b5b0492506010810190505b6305f5e10083106120bf576305f5e10083816120b5576120b4612f01565b5b0492506008810190505b61271083106120e45761271083816120da576120d9612f01565b5b0492506004810190505b6064831061210757606483816120fd576120fc612f01565b5b0492506002810190505b600a8310612116576001810190505b80915050919050565b60008073ffffffffffffffffffffffffffffffffffffffff168373ffffffffffffffffffffffffffffffffffffffff16141580156121d757508273ffffffffffffffffffffffffffffffffffffffff168473ffffffffffffffffffffffffffffffffffffffff16148061219857506121978484610a30565b5b806121d657508273ffffffffffffffffffffffffffffffffffffffff166121be83610c33565b73ffffffffffffffffffffffffffffffffffffffff16145b5b90509392505050565b6000604051905090565b600080fd5b600080fd5b60007fffffffff0000000000000000000000000000000000000000000000000000000082169050919050565b612229816121f4565b811461223457600080fd5b50565b60008135905061224681612220565b92915050565b600060208284031215612262576122616121ea565b5b600061227084828501612237565b91505092915050565b60008115159050919050565b61228e81612279565b82525050565b60006020820190506122a96000830184612285565b92915050565b600081519050919050565b600082825260208201905092915050565b60005b838110156122e95780820151818401526020810190506122ce565b60008484015250505050565b6000601f19601f8301169050919050565b6000612311826122af565b61231b81856122ba565b935061232b8185602086016122cb565b612334816122f5565b840191505092915050565b600060208201905081810360008301526123598184612306565b905092915050565b6000819050919050565b61237481612361565b811461237f57600080fd5b50565b6000813590506123918161236b565b92915050565b6000602082840312156123ad576123ac6121ea565b5b60006123bb84828501612382565b91505092915050565b600073ffffffffffffffffffffffffffffffffffffffff82169050919050565b60006123ef826123c4565b9050919050565b6123ff816123e4565b82525050565b600060208201905061241a60008301846123f6565b92915050565b612429816123e4565b811461243457600080fd5b50565b60008135905061244681612420565b92915050565b60008060408385031215612463576124626121ea565b5b600061247185828601612437565b925050602061248285828601612382565b9150509250929050565b61249581612361565b82525050565b60006020820190506124b0600083018461248c565b92915050565b6000806000606084860312156124cf576124ce6121ea565b5b60006124dd86828701612437565b93505060206124ee86828701612437565b92505060406124ff86828701612382565b9150509250925092565b60006020828403121561251f5761251e6121ea565b5b600061252d84828501612437565b91505092915050565b600081519050919050565b600082825260208201905092915050565b6000819050602082019050919050565b61256b81612361565b82525050565b600061257d8383612562565b60208301905092915050565b6000602082019050919050565b60006125a182612536565b6125ab8185612541565b93506125b683612552565b8060005b838110156125e75781516125ce8882612571565b97506125d983612589565b9250506001810190506125ba565b5085935050505092915050565b6000602082019050818103600083015261260e8184612596565b905092915050565b61261f81612279565b811461262a57600080fd5b50565b60008135905061263c81612616565b92915050565b60008060408385031215612659576126586121ea565b5b600061266785828601612437565b92505060206126788582860161262d565b9150509250929050565b600080fd5b600080fd5b7f4e487b7100000000000000000000000000000000000000000000000000000000600052604160045260246000fd5b6126c4826122f5565b810181811067ffffffffffffffff821117156126e3576126e261268c565b5b80604052505050565b60006126f66121e0565b905061270282826126bb565b919050565b600067ffffffffffffffff8211156127225761272161268c565b5b61272b826122f5565b9050602081019050919050565b82818337600083830152505050565b600061275a61275584612707565b6126ec565b90508281526020810184848401111561277657612775612687565b5b612781848285612738565b509392505050565b600082601f83011261279e5761279d612682565b5b81356127ae848260208601612747565b91505092915050565b600080600080608085870312156127d1576127d06121ea565b5b60006127df87828801612437565b94505060206127f087828801612437565b935050604061280187828801612382565b925050606085013567ffffffffffffffff811115612822576128216121ef565b5b61282e87828801612789565b91505092959194509250565b600067ffffffffffffffff8211156128555761285461268c565b5b61285e826122f5565b9050602081019050919050565b600061287e6128798461283a565b6126ec565b90508281526020810184848401111561289a57612899612687565b5b6128a5848285612738565b509392505050565b600082601f8301126128c2576128c1612682565b5b81356128d284826020860161286b565b91505092915050565b600080604083850312156128f2576128f16121ea565b5b600061290085828601612437565b925050602083013567ffffffffffffffff811115612921576129206121ef565b5b61292d858286016128ad565b9150509250929050565b6000806040838503121561294e5761294d6121ea565b5b600061295c85828601612437565b925050602061296d85828601612437565b9150509250929050565b7f4e487b7100000000000000000000000000000000000000000000000000000000600052602260045260246000fd5b600060028204905060018216806129be57607f821691505b6020821081036129d1576129d0612977565b5b50919050565b60006060820190506129ec60008301866123f6565b6129f9602083018561248c565b612a0660408301846123f6565b949350505050565b6000604082019050612a2360008301856123f6565b612a30602083018461248c565b9392505050565b7f4e487b7100000000000000000000000000000000000000000000000000000000600052603260045260246000fd5b7f4e487b7100000000000000000000000000000000000000000000000000000000600052601160045260246000fd5b6000612aa082612361565b91507fffffffffffffffffffffffffffffffffffffffffffffffffffffffffffffffff8203612ad257612ad1612a66565b5b600182019050919050565b600081519050919050565b600082825260208201905092915050565b6000612b0482612add565b612b0e8185612ae8565b9350612b1e8185602086016122cb565b612b27816122f5565b840191505092915050565b6000608082019050612b4760008301876123f6565b612b5460208301866123f6565b612b61604083018561248c565b8181036060830152612b738184612af9565b905095945050505050565b600081519050612b8d81612220565b92915050565b600060208284031215612ba957612ba86121ea565b5b6000612bb784828501612b7e565b91505092915050565b600081905092915050565b6000612bd6826122af565b612be08185612bc0565b9350612bf08185602086016122cb565b80840191505092915050565b6000612c088285612bcb565b9150612c148284612bcb565b91508190509392505050565b60008190508160005260206000209050919050565b60006020601f8301049050919050565b600082821b905092915050565b600060088302612c827fffffffffffffffffffffffffffffffffffffffffffffffffffffffffffffffff82612c45565b612c8c8683612c45565b95508019841693508086168417925050509392505050565b6000819050919050565b6000612cc9612cc4612cbf84612361565b612ca4565b612361565b9050919050565b6000819050919050565b612ce383612cae565b612cf7612cef82612cd0565b848454612c52565b825550505050565b600090565b612d0c612cff565b612d17818484612cda565b505050565b5b81811015612d3b57612d30600082612d04565b600181019050612d1d565b5050565b601f821115612d8057612d5181612c20565b612d5a84612c35565b81016020851015612d69578190505b612d7d612d7585612c35565b830182612d1c565b50505b505050565b600082821c905092915050565b6000612da360001984600802612d85565b1980831691505092915050565b6000612dbc8383612d92565b9150826002028217905092915050565b612dd5826122af565b67ffffffffffffffff811115612dee57612ded61268c565b5b612df882546129a6565b612e03828285612d3f565b600060209050601f831160018114612e365760008415612e24578287015190505b612e2e8582612db0565b865550612e96565b601f198416612e4486612c20565b60005b82811015612e6c57848901518255600182019150602085019450602081019050612e47565b86831015612e895784890151612e85601f891682612d92565b8355505b6001600288020188555050505b505050505050565b6000612ea982612361565b9150612eb483612361565b9250828203905081811115612ecc57612ecb612a66565b5b92915050565b7f4e487b7100000000000000000000000000000000000000000000000000000000600052603160045260246000fd5b7f4e487b7100000000000000000000000000000000000000000000000000000000600052601260045260246000fdfea2646970667358221220ee693fe6e076df46aad8235f3cb9040adc69e498f3da1625984e5ffd17c4767364736f6c63430008140033",
  "linkReferences": {},
  "deployedLinkReferences": {}
}